S019000054656D70657261747572655F4D657465722E7372656321
S11300000C942A000C9447000C9447000C9447006D
S11300100C9447000C9447000C9447000C94470040
S11300200C9447000C9447000C9447000C94470030
S11300300C9447000C9447000C9447000C94470020
S11300400C9447000C9447000C9447000C94470010
S11300500C94470011241FBECFE5D8E0DEBFCDBF0E
S113006010E0A0E6B0E0EAE7F6E002C005900D92E9
S1130070A436B107D9F710E0A4E6B0E001C01D92A0
S1130080A436B107E1F70E94C5010C943B030C941C
S113009000003E9A379A309A319A329A0895369AE5
S11300A086B186FDFDCF84B195B10895D998982F76
S11300B092959F7090FF02C0DB9A01C0DB98982F45
S11300C092959695977090FF02C0DC9A01C0DC98D7
S11300D0982F929596959695937090FF02C0DD9A0D
S11300E001C0DD98882314F4DE9A01C0DE98DA9A00
S11300F0EFE9FFE03197F1F700C00000DA98EFE98B
S1130100FFE03197F1F700C0000080FF02C0DB9AE6
S113011001C0DB98982F969590FF02C0DC9A01C02D
S1130120DC98982F9695969590FF02C0DD9A01C0B1
S1130130DD9886958695869580FF02C0DE9A01C07B
S1130140DE98DA9A8FE99FE00197F1F700C000008A
S1130150DA98EFE9FFE03197F1F700C00000089565
S11301608AB38E678ABB83E00E9456008FE79EE3C2
S11301700197F1F700C0000083E00E945600AFE74A
S1130180BEE31197F1F700C0000083E00E9456001F
S11301908FE79EE30197F1F700C0000082E00E9420
S11301A0560088E20E94560088E00E94560081E0D2
S11301B00E94560086E00E9456008FEF99EFA0E05F
S11301C081509040A040E1F700C000008CE00E9404
S11301D056000895D99A982F92959F7090FF02C067
S11301E0DB9A01C0DB98982F92959695977090FFB3
S11301F002C0DC9A01C0DC98982F9295969596954A
S1130200937090FF02C0DD9A01C0DD98882314F436
S1130210DE9A01C0DE98DA9AEFE9FFE03197F1F750
S113022000C00000DA98EFE9FFE03197F1F700C071
S1130230000080FF02C0DB9A01C0DB98982F9695DE
S113024090FF02C0DC9A01C0DC98982F9695969591
S113025090FF02C0DD9A01C0DD988695869586954B
S113026080FF02C0DE9A01C0DE98DA9A8FE99FE02F
S11302700197F1F700C00000DA98EFE9FFE0319749
S1130280F1F700C0000008950F931F93CF938C01E2
S1130290FC018081882351F0C0E00E94EA00CF5F16
S11302A0F801EC0FF11D80818823B9F7CF911F91DC
S11302B00F9108958F929F92AF92BF92EF92FF9207
S11302C01F93CF93DF93CDB7DEB72A970FB6F89479
S11302D0DEBF0FBECDBFDC01CB01AE014F5F5F4F70
S11302E02AE0FA0111922A95E9F70097A105B105D0
S11302F021F480E30E94EA0038C010E00F2EFAE0F7
S11303008F2EF0E09F2EF0E0AF2EF0E0BF2EF02D08
S1130310E12EFF24E7FCF09421E030E02C0F3D1F98
S1130320E20EF31EBC01CD01A50194010E94190344
S1130330605DF7016083822F932FA42FB52F1F5F79
S11303400097A105B10521F711507AF0E12FFF279D
S1130350E7FDF09521E030E02C0F3D1FE20FF31F85
S113036080810E94EA00115088F72A960FB6F8940B
S1130370DEBF0FBECDBFDF91CF911F91FF90EF90F5
S1130380BF90AF909F908F9008950E9449000E9463
S1130390B0000F2EF0E6EF2EF0E0FF2EF02D0E94BD
S11303A04F00BC0180E090E00E94280220E030E091
S11303B04AEF5EE30E948E02062F172FD82FC92F13
S11303C081E00E945600802F912FAD2FBC2FBC01DD
S11303D0CD010E94FC0180E090E00E945A01C70117
S11303E00E9444018FEF93ECA9E081509040A0401B
S11303F0E1F700C00000D3CF70D088F09F5790F091
S1130400B92F9927B751A0F0D1F0660F771F881F35
S1130410991F1AF0BA95C9F712C0B13081F077D09C
S1130420B1E0089574C0672F782F8827B85F39F03A
S1130430B93FCCF3869577956795B395D9F73EF494
S113044090958095709561957F4F8F4F9F4F08953C
S1130450E89409C097FB3EF490958095709561955A
S11304607F4F8F4F9F4F9923A9F0F92F96E9BB2710
S11304709395F695879577956795B795F111F8CF8C
S1130480FAF4BB0F11F460FF1BC06F5F7F4F8F4FF7
S11304909F4F16C0882311F096E911C0772321F0ED
S11304A09EE8872F762F05C0662371F096E8862F85
S11304B070E060E02AF09A95660F771F881FDAF7DC
S11304C0880F9695879597F9089557FD9058440F8E
S11304D0551F59F05F3F71F04795880F97FB991F9F
S11304E061F09F3F79F0879508951216130614065C
S11304F0551FF2CF4695F1DF08C0161617061806E9
S1130500991FF1CF86957105610508940895E894C3
S1130510BB2766277727CB0197F908950BD078C0BE
S113052069D028F06ED018F0952309F05AC05FC046
S11305301124EECFCADFA0F3959FD1F3950F50E0BD
S1130540551F629FF001729FBB27F00DB11D639F81
S1130550AA27F00DB11DAA1F649F6627B00DA11D27
S1130560661F829F2227B00DA11D621F739FB00DCD
S1130570A11D621F839FA00D611D221F749F33273D
S1130580A00D611D231F849F600D211D822F762FD6
S11305906A2F11249F5750408AF0E1F088234AF0D3
S11305A0EE0FFF1FBB1F661F771F881F915050401F
S11305B0A9F79E3F510570F014C0AACF5F3FECF33A
S11305C0983EDCF3869577956795B795F795E7950B
S11305D09F5FC1F7FE2B880F911D9695879597F91C
S11305E0089597F99F6780E870E060E008959FEFB1
S11305F080EC089500240A941616170618060906B6
S1130600089500240A941216130614060506089584
S1130610092E0394000C11F4882352F0BB0F40F40C
S1130620BF2B11F460FF04C06F5F7F4F8F4F9F4F4C
S11306300895A1E21A2EAA1BBB1BFD010DC0AA1F1F
S1130640BB1FEE1FFF1FA217B307E407F50720F037
S1130650A21BB30BE40BF50B661F771F881F991FB2
S11306601A9469F760957095809590959B01AC01FB
S10D0670BD01CF010895F894FFCFF7
S107067A2043000015
S9030000FC
